{
  "_format": "hh-sol-artifact-1",
  "contractName": "SafuuArb",
  "sourceName": "contracts/SafuuArb.sol",
  "abi": [
    {
      "inputs": [
        {
          "internalType": "address",
          "name": "_weth",
          "type": "address"
        }
      ],
      "stateMutability": "nonpayable",
      "type": "constructor"
    },
    {
      "anonymous": false,
      "inputs": [
        {
          "indexed": false,
          "internalType": "address",
          "name": "token",
          "type": "address"
        },
        {
          "indexed": false,
          "internalType": "uint256",
          "name": "profit",
          "type": "uint256"
        }
      ],
      "name": "ArbitrageExecuted",
      "type": "event"
    },
    {
      "anonymous": false,
      "inputs": [
        {
          "indexed": false,
          "internalType": "address",
          "name": "token",
          "type": "address"
        },
        {
          "indexed": false,
          "internalType": "address",
          "name": "sender",
          "type": "address"
        },
        {
          "indexed": false,
          "internalType": "uint256",
          "name": "amount",
          "type": "uint256"
        }
      ],
      "name": "RewardsCollected",
      "type": "event"
    },
    {
      "anonymous": false,
      "inputs": [
        {
          "indexed": false,
          "internalType": "address",
          "name": "token",
          "type": "address"
        },
        {
          "indexed": false,
          "internalType": "address",
          "name": "sender",
          "type": "address"
        },
        {
          "indexed": false,
          "internalType": "uint256",
          "name": "amount",
          "type": "uint256"
        }
      ],
      "name": "Staked",
      "type": "event"
    },
    {
      "anonymous": false,
      "inputs": [
        {
          "indexed": false,
          "internalType": "address",
          "name": "token",
          "type": "address"
        },
        {
          "indexed": false,
          "internalType": "address",
          "name": "sender",
          "type": "address"
        },
        {
          "indexed": false,
          "internalType": "uint256",
          "name": "amount",
          "type": "uint256"
        }
      ],
      "name": "Withdrawed",
      "type": "event"
    },
    {
      "stateMutability": "payable",
      "type": "fallback"
    },
    {
      "inputs": [
        {
          "internalType": "address",
          "name": "token",
          "type": "address"
        },
        {
          "internalType": "uint256",
          "name": "amount",
          "type": "uint256"
        }
      ],
      "name": "collectRewards",
      "outputs": [],
      "stateMutability": "nonpayable",
      "type": "function"
    },
    {
      "inputs": [
        {
          "internalType": "address",
          "name": "token",
          "type": "address"
        }
      ],
      "name": "getBalancePerToken",
      "outputs": [
        {
          "internalType": "uint256",
          "name": "balance",
          "type": "uint256"
        }
      ],
      "stateMutability": "view",
      "type": "function"
    },
    {
      "inputs": [],
      "name": "getStakerCount",
      "outputs": [
        {
          "internalType": "uint256",
          "name": "stakersCount",
          "type": "uint256"
        }
      ],
      "stateMutability": "view",
      "type": "function"
    },
    {
      "inputs": [
        {
          "internalType": "address",
          "name": "user",
          "type": "address"
        },
        {
          "internalType": "address",
          "name": "token",
          "type": "address"
        }
      ],
      "name": "getUserBalance",
      "outputs": [
        {
          "internalType": "uint256",
          "name": "userBalance",
          "type": "uint256"
        }
      ],
      "stateMutability": "view",
      "type": "function"
    },
    {
      "inputs": [
        {
          "internalType": "address",
          "name": "user",
          "type": "address"
        },
        {
          "internalType": "address",
          "name": "token",
          "type": "address"
        }
      ],
      "name": "getUserReward",
      "outputs": [
        {
          "internalType": "uint256",
          "name": "userReward",
          "type": "uint256"
        }
      ],
      "stateMutability": "view",
      "type": "function"
    },
    {
      "inputs": [
        {
          "internalType": "address",
          "name": "newWallet",
          "type": "address"
        }
      ],
      "name": "setProjectWallet",
      "outputs": [],
      "stateMutability": "nonpayable",
      "type": "function"
    },
    {
      "inputs": [
        {
          "internalType": "uint256",
          "name": "_tax",
          "type": "uint256"
        }
      ],
      "name": "setTax",
      "outputs": [],
      "stateMutability": "nonpayable",
      "type": "function"
    },
    {
      "inputs": [
        {
          "internalType": "address",
          "name": "_token",
          "type": "address"
        },
        {
          "internalType": "uint256",
          "name": "amount",
          "type": "uint256"
        }
      ],
      "name": "stake",
      "outputs": [],
      "stateMutability": "payable",
      "type": "function"
    },
    {
      "inputs": [],
      "name": "tax",
      "outputs": [
        {
          "internalType": "uint256",
          "name": "",
          "type": "uint256"
        }
      ],
      "stateMutability": "view",
      "type": "function"
    },
    {
      "inputs": [],
      "name": "totalStaked",
      "outputs": [
        {
          "internalType": "uint256",
          "name": "",
          "type": "uint256"
        }
      ],
      "stateMutability": "view",
      "type": "function"
    },
    {
      "inputs": [
        {
          "internalType": "address",
          "name": "newOwner",
          "type": "address"
        }
      ],
      "name": "transferOwnership",
      "outputs": [],
      "stateMutability": "nonpayable",
      "type": "function"
    },
    {
      "inputs": [
        {
          "internalType": "address",
          "name": "router",
          "type": "address"
        },
        {
          "internalType": "address",
          "name": "token0",
          "type": "address"
        },
        {
          "internalType": "address",
          "name": "token1",
          "type": "address"
        },
        {
          "internalType": "address",
          "name": "token2",
          "type": "address"
        },
        {
          "internalType": "uint256",
          "name": "amount",
          "type": "uint256"
        }
      ],
      "name": "triangularArbitrage",
      "outputs": [],
      "stateMutability": "nonpayable",
      "type": "function"
    },
    {
      "inputs": [
        {
          "internalType": "uint256",
          "name": "",
          "type": "uint256"
        }
      ],
      "name": "users",
      "outputs": [
        {
          "internalType": "address",
          "name": "",
          "type": "address"
        }
      ],
      "stateMutability": "view",
      "type": "function"
    },
    {
      "inputs": [
        {
          "internalType": "address",
          "name": "token",
          "type": "address"
        },
        {
          "internalType": "uint256",
          "name": "amount",
          "type": "uint256"
        }
      ],
      "name": "withdraw",
      "outputs": [],
      "stateMutability": "nonpayable",
      "type": "function"
    },
    {
      "stateMutability": "payable",
      "type": "receive"
    }
  ],
  "bytecode": "0x608060405234801561001057600080fd5b50604051611fd2380380611fd283398101604081905261002f91610069565b600180546001600160a01b039092166001600160a01b03199283161790556003805482163390811790915560028054909216179055610099565b60006020828403121561007b57600080fd5b81516001600160a01b038116811461009257600080fd5b9392505050565b611f2a806100a86000396000f3fe6080604052600436106100d55760003560e01c8063817b1cd211610079578063adc9772e11610056578063adc9772e1461028c578063b2d0e1f01461029f578063f2fde38b146102bf578063f3fef3a3146102df57005b8063817b1cd2146102405780638a7804471461025657806399c8d5561461027657005b8063365b98b2116100b2578063365b98b21461015857806358639072146101905780635ab764ed146101b05780636805d6ad146101f657005b80631319649d146100de57806319c1092e146101025780632e5bb6ff1461013857005b366100dc57005b005b3480156100ea57600080fd5b506000545b6040519081526020015b60405180910390f35b34801561010e57600080fd5b506100ef61011d366004611b2a565b6001600160a01b031660009081526008602052604090205490565b34801561014457600080fd5b506100dc610153366004611b45565b6102ff565b34801561016457600080fd5b50610178610173366004611b45565b610337565b6040516001600160a01b0390911681526020016100f9565b34801561019c57600080fd5b506100dc6101ab366004611b5e565b610361565b3480156101bc57600080fd5b506100ef6101cb366004611b88565b6001600160a01b03918216600090815260066020908152604080832093909416825291909152205490565b34801561020257600080fd5b506100ef610211366004611b88565b6001600160a01b0391821660009081526006602090815260408083209390941682526001909201909152205490565b34801561024c57600080fd5b506100ef60045481565b34801561026257600080fd5b506100dc610271366004611b2a565b61085c565b34801561028257600080fd5b506100ef60055481565b6100dc61029a366004611b5e565b6108a8565b3480156102ab57600080fd5b506100dc6102ba366004611bbb565b610d5a565b3480156102cb57600080fd5b506100dc6102da366004611b2a565b611544565b3480156102eb57600080fd5b506100dc6102fa366004611b5e565b611590565b6002546001600160a01b031633146103325760405162461bcd60e51b815260040161032990611c17565b60405180910390fd5b600555565b6000818154811061034757600080fd5b6000918252602090912001546001600160a01b0316905081565b3360008181526006602090815260408083206001600160a01b0387168452909152902054828110156103d55760405162461bcd60e51b815260206004820152601b60248201527f496e73756666696369656e74207265776172642062616c616e636500000000006044820152606401610329565b60006103f760646103f16005548761193c90919063ffffffff16565b9061194f565b6001600160a01b0384166000908152600960205260408120549192509060ff1615610423575083610430565b61042d858361195b565b90505b6001546001600160a01b038781169116141561054757600154604051632e1a7d4d60e01b8152600481018790526001600160a01b03909116908190632e1a7d4d90602401600060405180830381600087803b15801561048e57600080fd5b505af11580156104a2573d6000803e3d6000fd5b505050506000856001600160a01b03168360405160006040518083038185875af1925050503d80600081146104f3576040519150601f19603f3d011682016040523d82523d6000602084013e6104f8565b606091505b50509050806105405760405162461bcd60e51b81526020600482015260146024820152732330b4b632b2103a379039b2b7321022ba3432b960611b6044820152606401610329565b50506105e5565b60405163a9059cbb60e01b81526001600160a01b0385811660048301526024820183905287169063a9059cbb90604401602060405180830381600087803b15801561059157600080fd5b505af11580156105a5573d6000803e3d6000fd5b505050506040513d601f19601f820116820180604052508101906105c99190611c3a565b6105e55760405162461bcd60e51b815260040161032990611c5c565b60006105f1848761195b565b905080156107e4576001546001600160a01b03888116911614156107425760015460408051630d0e30db60e41b815290516001600160a01b0390921691829163d0e30db091859160048082019260009290919082900301818588803b15801561065957600080fd5b505af115801561066d573d6000803e3d6000fd5b505060035460405163a9059cbb60e01b81526001600160a01b03918216600482015260248101879052908516935063a9059cbb92506044019050602060405180830381600087803b1580156106c157600080fd5b505af11580156106d5573d6000803e3d6000fd5b505050506040513d601f19601f820116820180604052508101906106f99190611c3a565b61073c5760405162461bcd60e51b815260206004820152601460248201527315d15512081d1c985b9cd9995c8819985a5b195960621b6044820152606401610329565b506107e4565b60035460405163a9059cbb60e01b81526001600160a01b039182166004820152602481018390529088169063a9059cbb90604401602060405180830381600087803b15801561079057600080fd5b505af11580156107a4573d6000803e3d6000fd5b505050506040513d601f19601f820116820180604052508101906107c89190611c3a565b6107e45760405162461bcd60e51b815260040161032990611c5c565b6107ee848761195b565b6001600160a01b038087166000908152600660209081526040808320938c16835292905281902091909155517f5cbc2d25e94cfcae49c20ef253b5bdba9c8fba9e437f0423f0ac464d4897d6459061084b90899088908690611c8b565b60405180910390a150505050505050565b6002546001600160a01b031633146108865760405162461bcd60e51b815260040161032990611c17565b600380546001600160a01b0319166001600160a01b0392909216919091179055565b6001543390309084906001600160a01b0380831691161415610ab25734806109005760405162461bcd60e51b815260206004820152600b60248201526a139bc8115512081cd95b9d60aa1b6044820152606401610329565b6000869050806001600160a01b031663d0e30db0836040518263ffffffff1660e01b81526004016000604051808303818588803b15801561094057600080fd5b505af1158015610954573d6000803e3d6000fd5b505050506001600160a01b03881660009081526008602052604090205461097c915083611967565b6001600160a01b03808916600081815260086020908152604080832095909555928916815260068352838120918152600190910190915220546109bf9083611967565b6001600160a01b038087166000908152600660209081526040808320938c1683526001909301905281902091909155517f5dac0c1b1112564a045ba943c9d50270893e8e826c49be8e7073adc713ab7bd790610a2090899088908690611c8b565b60405180910390a16001600160a01b03851660009081526007602052604090205460ff16610aab5760008054600180820183557f290decd9548b62a8d60345a988386fc84ba6bc95484008f6362f93160ef3e56390910180546001600160a01b0319166001600160a01b038916908117909155825260076020526040909120805460ff191690911790555b5050610d53565b604051636eb1769f60e11b81526001600160a01b03848116600483015283811660248301526000919083169063dd62ed3e9060440160206040518083038186803b158015610aff57600080fd5b505afa158015610b13573d6000803e3d6000fd5b505050506040513d601f19601f82011682018060405250810190610b379190611caf565b905084811015610b895760405162461bcd60e51b815260206004820152601c60248201527f496e73756666696369656e7420746f6b656e20616c6c6f77616e6365000000006044820152606401610329565b6040516323b872dd60e01b81526001600160a01b038316906323b872dd90610bb990879087908a90600401611c8b565b602060405180830381600087803b158015610bd357600080fd5b505af1158015610be7573d6000803e3d6000fd5b505050506040513d601f19601f82011682018060405250810190610c0b9190611c3a565b506001600160a01b038616600090815260086020526040902054610c2f9086611967565b6001600160a01b0380881660008181526008602090815260408083209590955592881681526006835283812091815260019091019091522054610c729086611967565b6001600160a01b038086166000818152600660209081526040808320948c1683526001909401815283822094909455908152600790925290205460ff16610d165760008054600180820183557f290decd9548b62a8d60345a988386fc84ba6bc95484008f6362f93160ef3e56390910180546001600160a01b0319166001600160a01b038816908117909155825260076020526040909120805460ff191690911790555b7f5dac0c1b1112564a045ba943c9d50270893e8e826c49be8e7073adc713ab7bd7868587604051610d4993929190611c8b565b60405180910390a1505b5050505050565b6040805160028082526060820183526000926020830190803683370190505090508481600081518110610d8f57610d8f611cde565b60200260200101906001600160a01b031690816001600160a01b0316815250508381600181518110610dc357610dc3611cde565b6001600160a01b039290921660209283029190910182015260408051600280825260608201835260009391929091830190803683370190505090508481600081518110610e1257610e12611cde565b60200260200101906001600160a01b031690816001600160a01b0316815250508381600181518110610e4657610e46611cde565b6001600160a01b039290921660209283029190910182015260408051600280825260608201835260009391929091830190803683370190505090508481600081518110610e9557610e95611cde565b60200260200101906001600160a01b031690816001600160a01b0316815250508681600181518110610ec957610ec9611cde565b6001600160a01b03928316602091820292909201015260405163d06ca61f60e01b81523091600091908b169063d06ca61f90610f0b9089908990600401611d38565b60006040518083038186803b158015610f2357600080fd5b505afa158015610f37573d6000803e3d6000fd5b505050506040513d6000823e601f3d908101601f19168201604052610f5f9190810190611d59565b905060008a6001600160a01b031663d06ca61f83600181518110610f8557610f85611cde565b6020026020010151876040518363ffffffff1660e01b8152600401610fab929190611d38565b60006040518083038186803b158015610fc357600080fd5b505afa158015610fd7573d6000803e3d6000fd5b505050506040513d6000823e601f3d908101601f19168201604052610fff9190810190611d59565b905060008b6001600160a01b031663d06ca61f8360018151811061102557611025611cde565b6020026020010151876040518363ffffffff1660e01b815260040161104b929190611d38565b60006040518083038186803b15801561106357600080fd5b505afa158015611077573d6000803e3d6000fd5b505050506040513d6000823e601f3d908101601f1916820160405261109f9190810190611d59565b9050806001815181106110b4576110b4611cde565b6020026020010151881015611450576001600160a01b038b1663095ea7b38d6110de8b606461193c565b6040516001600160e01b031960e085901b1681526001600160a01b0390921660048301526024820152604401602060405180830381600087803b15801561112457600080fd5b505af1158015611138573d6000803e3d6000fd5b505050506040513d601f19601f8201168201806040525081019061115c9190611c3a565b50896001600160a01b031663095ea7b38d61119b60648760018151811061118557611185611cde565b602002602001015161193c90919063ffffffff16565b6040516001600160e01b031960e085901b1681526001600160a01b0390921660048301526024820152604401602060405180830381600087803b1580156111e157600080fd5b505af11580156111f5573d6000803e3d6000fd5b505050506040513d601f19601f820116820180604052508101906112199190611c3a565b50886001600160a01b031663095ea7b38d61124260648660018151811061118557611185611cde565b6040516001600160e01b031960e085901b1681526001600160a01b0390921660048301526024820152604401602060405180830381600087803b15801561128857600080fd5b505af115801561129c573d6000803e3d6000fd5b505050506040513d601f19601f820116820180604052508101906112c09190611c3a565b506001600160a01b038c16635c11d7958960008a886112e1426104b0611e2d565b6040518663ffffffff1660e01b8152600401611301959493929190611e45565b600060405180830381600087803b15801561131b57600080fd5b505af115801561132f573d6000803e3d6000fd5b505050508b6001600160a01b0316635c11d7958460018151811061135557611355611cde565b602002602001015160008988426104b061136f9190611e2d565b6040518663ffffffff1660e01b815260040161138f959493929190611e45565b600060405180830381600087803b1580156113a957600080fd5b505af11580156113bd573d6000803e3d6000fd5b505050508b6001600160a01b0316635c11d795836001815181106113e3576113e3611cde565b602002602001015160008888426104b06113fd9190611e2d565b6040518663ffffffff1660e01b815260040161141d959493929190611e45565b600060405180830381600087803b15801561143757600080fd5b505af115801561144b573d6000803e3d6000fd5b505050505b8060018151811061146357611463611cde565b602002602001015188106114a55760405162461bcd60e51b81526020600482015260096024820152681b9bc81c1c9bd99a5d60ba1b6044820152606401610329565b6114db8b6114d68a846001815181106114c0576114c0611cde565b602002602001015161195b90919063ffffffff16565b611973565b7f972395fa18a09986c9b239da16e04fbe5c3736528787885746a83439cdc2f0bc8b6115148a846001815181106114c0576114c0611cde565b604080516001600160a01b03909316835260208301919091520160405180910390a1505050505050505050505050565b6002546001600160a01b0316331461156e5760405162461bcd60e51b815260040161032990611c17565b600280546001600160a01b0319166001600160a01b0392909216919091179055565b3360008181526007602052604090205460ff166115ef5760405162461bcd60e51b815260206004820152601a60248201527f5573657220686173206e6f207374616b65642062616c616e63650000000000006044820152606401610329565b6001600160a01b03808216600090815260066020908152604080832093871683526001909301905220548211156116745760405162461bcd60e51b815260206004820152602360248201527f496e73756666696369656e742062616c616e636520666f7220776974686472616044820152621dd85b60ea1b6064820152608401610329565b6001546001600160a01b038481169116141561178b57600154604051632e1a7d4d60e01b8152600481018490526001600160a01b03909116908190632e1a7d4d90602401600060405180830381600087803b1580156116d257600080fd5b505af11580156116e6573d6000803e3d6000fd5b505050506000826001600160a01b03168460405160006040518083038185875af1925050503d8060008114611737576040519150601f19603f3d011682016040523d82523d6000602084013e61173c565b606091505b50509050806117845760405162461bcd60e51b81526020600482015260146024820152732330b4b632b2103a379039b2b7321022ba3432b960611b6044820152606401610329565b5050611829565b60405163a9059cbb60e01b81526001600160a01b0382811660048301526024820184905284169063a9059cbb90604401602060405180830381600087803b1580156117d557600080fd5b505af11580156117e9573d6000803e3d6000fd5b505050506040513d601f19601f8201168201806040525081019061180d9190611c3a565b6118295760405162461bcd60e51b815260040161032990611c5c565b6001600160a01b038082166000908152600660209081526040808320938716835260019093019052205461185d908361195b565b6001600160a01b03808316600090815260066020908152604080832093881683526001909301815282822093909355600890925290205461189e908361195b565b6001600160a01b03808516600081815260086020908152604080832095909555928516815260068352838120918152600190910190915220546118fc576001600160a01b0381166000908152600760205260409020805460ff191690555b7ff10eae2de0b095be715d0a32380cea8e913ae297b48430b5397024146ce9036583828460405161192f93929190611c8b565b60405180910390a1505050565b60006119488284611e81565b9392505050565b60006119488284611ea0565b60006119488284611ec2565b60006119488284611e2d565b6000546119c25760405162461bcd60e51b815260206004820181905260248201527f4e6f207374616b65727320746f206469737472696275746520726577617264736044820152606401610329565b60008111611a225760405162461bcd60e51b815260206004820152602760248201527f52657761726420616d6f756e74206d7573742062652067726561746572207468604482015266616e207a65726f60c81b6064820152608401610329565b806000805b600054811015610d53576000808281548110611a4557611a45611cde565b60009182526020808320909101546001600160a01b03908116808452600683526040808520928b1685526001830190935291909220549092508015611af8576001600160a01b038816600090815260086020526040812054611aab906103f1898561193c565b6001600160a01b038a16600090815260208590526040902054909150611ad19082611967565b6001600160a01b038a16600090815260208590526040902055611af48682611967565b9550505b5050508080611b0690611ed9565b915050611a27565b80356001600160a01b0381168114611b2557600080fd5b919050565b600060208284031215611b3c57600080fd5b61194882611b0e565b600060208284031215611b5757600080fd5b5035919050565b60008060408385031215611b7157600080fd5b611b7a83611b0e565b946020939093013593505050565b60008060408385031215611b9b57600080fd5b611ba483611b0e565b9150611bb260208401611b0e565b90509250929050565b600080600080600060a08688031215611bd357600080fd5b611bdc86611b0e565b9450611bea60208701611b0e565b9350611bf860408701611b0e565b9250611c0660608701611b0e565b949793965091946080013592915050565b60208082526009908201526837b7363ca7bbb732b960b91b604082015260600190565b600060208284031215611c4c57600080fd5b8151801515811461194857600080fd5b602080825260159082015274151bdad95b881d1c985b9cd9995c8819985a5b1959605a1b604082015260600190565b6001600160a01b039384168152919092166020820152604081019190915260600190565b600060208284031215611cc157600080fd5b5051919050565b634e487b7160e01b600052604160045260246000fd5b634e487b7160e01b600052603260045260246000fd5b600081518084526020808501945080840160005b83811015611d2d5781516001600160a01b031687529582019590820190600101611d08565b509495945050505050565b828152604060208201526000611d516040830184611cf4565b949350505050565b60006020808385031215611d6c57600080fd5b825167ffffffffffffffff80821115611d8457600080fd5b818501915085601f830112611d9857600080fd5b815181811115611daa57611daa611cc8565b8060051b604051601f19603f83011681018181108582111715611dcf57611dcf611cc8565b604052918252848201925083810185019188831115611ded57600080fd5b938501935b82851015611e0b57845184529385019392850192611df2565b98975050505050505050565b634e487b7160e01b600052601160045260246000fd5b60008219821115611e4057611e40611e17565b500190565b85815284602082015260a060408201526000611e6460a0830186611cf4565b6001600160a01b0394909416606083015250608001529392505050565b6000816000190483118215151615611e9b57611e9b611e17565b500290565b600082611ebd57634e487b7160e01b600052601260045260246000fd5b500490565b600082821015611ed457611ed4611e17565b500390565b6000600019821415611eed57611eed611e17565b506001019056fea26469706673582212202f9787b88dd9393a3047b93a25d01debc9bc3d9e544e8ddd425ef1ea1b48cc4c64736f6c63430008090033",
  "linkReferences": {},
  "deployedLinkReferences": {}
}